:100000000C94B8040C94DC060C94B5060C94E00433
:100010000C94E0040C94E0040C94E0040C94E004D0
:100020000C94E0040C94E0040C94E0040C94560846
:100030000C94E0040C94E0040C94E0040C94E004B0
:100040000C94860E0C94E0040C9429070C9403077E
:100050000C94E0040C94E0040C94E0040C94E00490
:100060000C9417090C94E004084AD73B3BCE016E70
:1000700084BCBFFDC12F3D6C74319ABD56833DDAFF
:100080003D00C77F11BED9E4BB4C3E916BAAAABE0E
:10009000000000803F0000000000240027002A002C
:1000A00001B202FFFF0190040923A135016A020693
:1000B0000001600800000000000000000060044033
:1000C0000000000162020000006004004000000324
:1000D0007B034CCD6C03AB0336567600680402CB31
:1000E00047A202180400058BC1010C0400000000A7
:1000F000037F060CC92C9797970389032646660051
:100100006C022000024004000000000244040000D1
:10011000000002480400000000024C04000000003F
:1001200002500400000000025404000000000258C5
:100130000400000000025C040000000002BC040097
:1001400000000001EC0400004000037F060CC92CF5
:100150009797970402030D355D040904872D353DFB
:1001600000A3010000000001078601FE074105F120
:1001700020283038077E01300746019A074704F1EE
:10018000283038076C04F12830380216020001FBD1
:1001900000003E000B0036000100020003000000DA
:1001A000650054FFEF0000FA80000B12820001008E
:1001B000020000000000000000000000000000003D
:1001C000280000FFFF4581FFFFFA720000000000D9
:1001D0000003E80000000100017FFFFFFE80010036
:1001E0001B000000000000000000000000000000F4
:1001F0003E03304000000002CAE3093E80000020B8
:10020000000000000000004000000060000000410D
:10021000FF000000000B2A0000165500002182FD9F
:10022000872650FD800000001F00000005800000B0
:100230000000000001000000020000000300004078
:100240000000000000046F0002653200005EC04044
:10025000000000000000000000000000000000FBA3
:100260008C6F5DFD5D08D9007C733B006C12CC3255
:1002700000139D3200D0D632000800400001F4FF88
:10028000E68079020000000000D0D600002710FBB5
:10029000000000400000000000000000000000001E
:1002A000000001000000000000010001000000004B
:1002B00000FA36FFBC308E0005FBF0FFD95BC8FFAB
:1002C000D09ABE000010A9FFF41EB200CEBBF7000A
:1002D00000000100000004000200020200000CFF08
:1002E000C280000001800000CF80004000000000BC
:1002F00000000100000000000006000000001400E3
:1003000000000000000000000000000000000000ED
:1003100000000000000000000000000000000000DD
:1003200000000000000000000000000000000000CD
:10033000000000033F68B6793528BCC67ED16C80CA
:10034000000000400000000000B26A000000000051
:100350000000000000000000003FF000000030003E
:10036000000000000000000000000000000000008D
:10037000000000000000000000000000000000007D
:1003800000254D002F706D000005AE000C02D0005E
:1003900000000000650054FFEF00000000000000B6
:1003A0000001000044000000000C000000010000FB
:1003B0000000000065000000540000FFEF00000096
:1003C00000000000000000000000000000000040ED
:1003D00000000000000000000000000000000040DD
:1003E000000000000000000000000000000000000D
:1003F00000000100000002000000000000000000FA
:1004000000000000000000000000000000000000EC
:1004100000000000000000000000000000000000DC
:100420001B000000000000000000000000000000B1
:1004300000000000000000000000000000000000BC
:10044000000000000000000000000040000000006C
:100450001B00000000000000000000000000000081
:10046000000000000000000000000000000000008C
:10047000000000000000000000000000000000007C
:10048000000000000000000000000000000000D894
:10049000DCBAA2F1DEB2B8B4A88191F74A907F919C
:1004A0006AF3F9DBA8F9B0BAA080F2CE81F3C2F109
:1004B000C1F2C3F3CCA2B280F1C6D880BAA7DFDF05
:1004C000DFF2A7C3CBC5B6F087A2942448703C9551
:1004D000406834589B78A2F183922D557DD8B1B4F1
:1004E000B8A1D09180F270F370F27C80A8F101B0D5
:1004F0009887D943D886C988BAA1F20EB89780F1F7
:10050000A9DFDFDFAADFDFDFF2AAC5CDC7A90CC9EB
:100510002C97979797F1A989264666B0B4BA80AC14
:10052000DEF2CAF1B28C02A9B69800890E161EB886
:10053000A9B4992C547CB08AA896365676F1B9AFF6
:10054000B4B083C0B8A89711B18F98B9AFF02408A0
:1005500044106418F1A329557DAF83B593AFF00023
:100560002850F1A3869F61A6DADEDFD9FAA386962A
:10057000DB31A6D9F8DFBAA68FC2C5C7B28CC1B825
:10058000A2DFDFDFA3DFDFDFD8D8F1B8A8B286B4FF
:10059000980D355DB8AA98B0872D353DB2B6BAAF83
:1005A0008C96198F9FA70E161EB49AB8AA872C5442
:1005B0007CB9A3DEDFDFA3B180F2C4CDC9F1B8A955
:1005C000B499830D355D89B9A32D557DB593A30EDF
:1005D000161EA92C547CB8B4B0F19783A81184A539
:1005E0000998A383F0DA240844106418D8F1A529E7
:1005F000557DA58595021A2E3A565A4048F9F3A31F
:10060000D9F8F098832408441064189782A8F1114F
:10061000F098A2240844106418DAF3DED883A59475
:1006200001D9A302F1A2C3C5C7D8F18492A24DDAC1
:100630002AD84869D92AD86855DA32D85071D932BF
:10064000D8705DDA3AD85879D93AD87893A34DDA88
:100650002AD84869D92AD86855DA32D85071D9329F
:10066000D8705DDA3AD85879D93AD878A88A9AF009
:100670002850789EF38818F19F1D98A8D908D8C8EB
:100680009F129EF315A8DA1210D8F1AFC8978734DD
:10069000B5B994A421F3D922D8F22DF3D92AD8F2EE
:1006A00035F3D932D881A4606061D961D86C6869AA
:1006B000D969D8747071D971D8B1A384193D5DA37B
:1006C000831A3E5E931030811011B8B0AF8F94F250
:1006D000DA3ED8B49AA88729DAF8D8879A35DAF8B2
:1006E000D8879A3DDAF8D8B1B9A49885022E56A5D4
:1006F00081000C14A397B08AF12DD928D84DD94880
:10070000D86DD968D8B1840DDA0ED8A32983DA2C34
:100710000ED8A3844983DA2C4C0ED8B8B0A88A9A94
:10072000F520AADADFD8A840AAD0DADED8A860AAD5
:10073000DAD0DFD8F19786A8319B069907AB9728C6
:10074000889BF00C201440B8B0B4A88C9CF004280E
:1007500051791D301438B282ABD0982C5050787833
:100760009BF11AB0F08A9CA82951798B2951798A7A
:100770002470598B2058718A4469388B3940688AB3
:100780006448318B304960A588200971584468114C
:100790003964493019F1AC002C547CF08CA8042841
:1007A0005078F1889726A85998AC8C02264666F0B6
:1007B000899CA8295179247059446938644831A921
:1007C0008809205970AB11384069A8193148608CEC
:1007D000A83C415C207C00F187981986A86E767E43
:1007E000A999882D557D9EB9A38A228A6E8A568A38
:1007F0005E9FB183062646660E2E4E6E9DB8AD00F6
:100800002C547CF2B18CB499B9A32D557D8191AC57
:1008100038AD3AB58391AC2DD928D84DD948D86D8B
:10082000D968D88C9DAE29D904AED851D904AED898
:1008300079D904D881F39DAD008DAE1981ADD90170
:10084000D8F2AEDA26D88E912983A7D9ADADADAD59
:10085000F32AD8D8F1B0AC89913E5E76F3AC2E2E57
:10086000F1B18C5A9CAC2C2828289CAC3018A89844
:100870008128343C9724A728343C9C24F2B089ACCE
:10088000912C4C6C8A9B2DD9D8D851D9D8D879D9EC
:10089000D8D8F19E88A331DAD8D8912DD928D84D4F
:1008A000D948D86DD968D8B18393353D8025DAD839
:1008B000D88569DAD8D8B49381A328343CF3AB8BBC
:1008C000F8A391B609B4D9ABDEFAB0879CB9A3DD21
:1008D000F1A3A3A3A395F1A3A3A39DF1A3A3A3A312
:1008E000F2A3B49080F2A3A3A3A3A3A3A3A3A3A35F
:1008F000B2A3A3A3A3A3A3B087B599F1A3A3A3987D
:10090000F1A3A3A3A397A3A3A3A3F39BA3A3DCB9DE
:10091000A7F1262626D8D8FF4649464F206F766590
:1009200072666C6F77210000000000250028002B04
:100930000004040404040404040202020202020388
:100940000303030303010204081020408001020492
:100950000810200102040810200000000800020115
:1009600000000304070000000000000000009916CA
:1009700011241FBECFEFD8E0DEBFCDBF11E0A0E055
:10098000B1E0E6EEF9E302C005900D92A433B107A1
:10099000D9F723E0A4E3B1E001C01D92A635B20768
:1009A000E1F714E0C8EBD4E004C02197FE010E94F7
:1009B000B21AC73BD107C9F70E94D00E0C94F11CA4
:1009C0000C9400000895CF92DF92EF92FF920F9364
:1009D0001F93CF93DF936C017A018B01C0E0D0E0CD
:1009E000CE15DF0581F0D8016D918D01D601ED9115
:1009F000FC910190F081E02DC6010995892B11F041
:100A00002196EECF7E01C701DF91CF911F910F910B
:100A1000FF90EF90DF90CF900895FC01538D448DAF
:100A2000252F30E0842F90E0821B930B541710F099
:100A3000CF96089501970895FC01918D828D9817A6
:100A400061F0828DDF01A80FB11D5D968C91928DB2
:100A50009F5F9F73928F90E008958FEF9FEF0895AF
:100A6000FC01918D828D981731F0828DE80FF11D78
:100A7000858D90E008958FEF9FEF0895FC01918D93
:100A8000228D892F90E0805C9F4F821B91098F738C
:100A9000992708958CE692E00E943E0521E0892B7B
:100AA00009F420E0822F0895FC01848DDF01A80F56
:100AB000B11DA35ABF4F2C91848D90E001968F7386
:100AC0009927848FA689B7892C93A089B1898C91A5
:100AD000837080648C93938D848D981306C00288F4
:100AE000F389E02D80818F7D80830895EF92FF92BE
:100AF0000F931F93CF93DF93EC0181E0888F9B8D41
:100B00008C8D981305C0E889F989808185FD26C000
:100B1000F62E0B8D10E00F5F1F4F0F731127E02E85
:100B20008C8DE8120CC00FB607FCFACFE889F98962
:100B3000808185FFF5CFCE010E945405F1CF8B8DCA
:100B4000FE01E80FF11DE35AFF4FF0829FB7F894C2
:100B50000B8FEA89FB89808180620AC09FB7F89475
:100B6000EE89FF896083E889F989808183708064D8
:100B700080839FBF81E090E0DF91CF911F910F9123
:100B8000FF90EF900895CF93DF93EC01888D882339
:100B9000C9F0EA89FB89808185FD05C0A889B989EA
:100BA0008C9186FD0FC00FB607FCF5CF808185FFC5
:100BB000F2CFA889B9898C9185FFEDCFCE010E9433
:100BC0005405E7CFDF91CF91089580E090E0892B25
:100BD00029F00E944A0581110C940000089585EDCA
:100BE0008093BC008091BC0084FDFCCF1092470232
:100BF00008954091D401262F30E0240F311D213279
:100C00003105DCF4209147022430C9F4FC0180E076
:100C100090E0861758F43091D4012191DC01AC5456
:100C2000BE4FA30FB11D2C930196F3CF8091D40139
:100C3000680F6093D40180E0089581E0089582E018
:100C40000895089508950895E0913901809138013B
:100C5000E81730F4F0E0EC56FE4F808190E0089504
:100C60008FEF9FEF08959091390180913801981787
:100C700050F4E92FF0E0EC56FE4F208130E09F5F0A
:100C80009093390102C02FEF3FEFC9010895809181
:100C9000380190E020913901821B91090895CF928B
:100CA000DF92EF92FF920F931F93CF93DF937C011C
:100CB000CB018A0120914802222389F0EB016B01CC
:100CC000C40ED51ECC15DD0569F06991D701ED91F3
:100CD000FC910190F081E02DC7010995F3CF642FBD
:100CE0000E94F905C801DF91CF911F910F91FF90EC
:100CF000EF90DF90CF900895CF93DF931F92CDB701
:100D0000DEB76983209148022223D1F020916B0243
:100D1000203240F021E030E0FC013383228380E088
:100D200090E015C080914902E82FF0E0E65BFD4FAE
:100D3000998190838F5F8093490280936B0205C0F5
:100D400061E0CE0101960E94F90581E090E00F90EC
:100D5000DF91CF910895089580E090E0089581E0BB
:100D600080933A0108950E949F1C1F920F920FB624
:100D70000F9211242F933F934F935F936F937F9321
:100D80008F939F93AF93BF93EF93FF93E0910201F3
:100D9000F09103010995FF91EF91BF91AF919F9160
:100DA0008F917F916F915F914F913F912F910F9014
:100DB0000FBE0F901F9018951F920F920FB60F92B3
:100DC00011242F933F934F935F936F937F938F9350
:100DD0009F93AF93BF93EF93FF93E0910001F09146
:100DE00001010995FF91EF91BF91AF919F918F9173
:100DF0007F916F915F914F913F912F910F900FBE17
:100E00000F901F9018951F920F920FB60F921124FA
:100E10002F933F934F935F936F937F938F939F9302
:100E2000AF93BF93EF93FF938CE692E00E9454053B
:100E3000FF91EF91BF91AF919F918F917F916F91B2
:100E40005F914F913F912F910F900FBE0F901F9088
:100E500018951F920F920FB60F9211242F938F9314
:100E60009F93EF93FF93E0917C02F0917D0280814C
:100E7000E0918202F091830282FD12C09081809104
:100E800085028F5F8F7320918602821751F0E09167
:100E90008502F0E0E459FD4F958F8093850201C0F3
:100EA0008081FF91EF919F918F912F910F900FBEB5
:100EB0000F901F901895CF92DF92EF92FF92CF93F1
:100EC000DF93EC01603282E078070CF03DC077FDE3
:100ED00006C0653B71052CF064EB70E002C060E079
:100EE00070E0898128E830E06901C81AD10887FDDF
:100EF000D394CC0CDD1CCC0CDD1C0D2C000CEE08AE
:100F0000FF088A8128E532E0281B310987FD3395E7
:100F1000220F331F220F331FC901330FAA0BBB0B44
:100F20009C01AD012C193D094E095F09DB010E94AE
:100F30002F1724EB30E040E050E00E940517C20E6E
:100F4000D31EE41EF51EB60138813C3080F52981A0
:100F500088E890E0821B910927FD9395880F991FDF
:100F6000880F991F6817790784F08A8148E552E055
:100F7000481B510987FD5395440F551F440F551FBA
:100F8000CB01461757070CF4CA010297880F991F27
:100F90004FB7F894232F30E0F901EE0FFF1F2E0F0B
:100FA0003F1FF901E750FE4F928381834FBFDF91CE
:100FB000CF91FF90EF90DF90CF900895CF93DF9384
:100FC000DC018C918C3008F06DC0CB019927FC01BD
:100FD000EB5BF64F2491FC01EF5CF64F8491882384
:100FE00099F090E0880F991FFC01EA56FF4FC591D8
:100FF000D491FC01E95DF64F859194918FB7F894F7
:10100000E881E22BE8838FBF8C91E82FF0E09F010D
:10101000220F331FE20FF31FE750FE4F6F739081D3
:10102000907C692B608311961C92119712961C92EA
:1010300012976CE00E94A61A9CE0899FB0011124CF
:1010400040E050E09B01240F351FF901EE0FFF1F18
:101050002E0F3F1FF901E750FE4F908196FD16C0FD
:101060004F5F5F4F4C30510569F781110FC01092EF
:10107000800082E0809381001092850010928400AD
:10108000B19A80916F00826080936F00EC91F0E0E4
:10109000CF01880F991FE80FF91FE750FE4F80819D
:1010A000806480838C91DF91CF9108951F920F927D
:1010B0000FB60F9211242F933F934F935F936F932B
:1010C0007F938F939F93AF93BF93EF93FF93809101
:1010D000F70187FF05C010928500109284001BC0A5
:1010E0002091F701022E000C330B8091F80190E063
:1010F0002817390784F48091F701082E000C990B0A
:10110000FC01EE0FFF1F8E0F9F1FFC01E750FE4FEB
:10111000808186FD15C08091F7018F5F8093F70174
:101120002091F701022E000C330B8091F80190E022
:1011300028173907C4F48091F7018C3064F113C08B
:101140008091F701082E000C990BFC01EE0FFF1F98
:101150008E0F9F1FFC01E750FE4F808160E08F7370
:101160000E94FF0DD8CF8091840090918500049655
:1011700080349C4918F480E49CE905C08091840087
:1011800090918500049690938900809388008FEF5A
:101190008093F7013BC020918400309185008091BD
:1011A000F701082E000C990BFC01EE0FFF1F8E0FAC
:1011B0009F1FFC01E750FE4F81819281820F931F98
:1011C00090938900809388008091F701082E000C8D
:1011D000990BFC01EE0FFF1F8E0F9F1FFC01E750C4
:1011E000FE4F808186FF12C08091F701082E000C0F
:1011F000990BFC01EE0FFF1F8E0F9F1FFC01E750A4
:10120000FE4F808161E08F730E94FF0DFF91EF918F
:10121000BF91AF919F918F917F916F915F914F910E
:101220003F912F910F900FBE0F901F9018951F9216
:101230000F920FB60F9211242F933F934F935F930A
:101240006F937F938F939F93AF93BF93EF93FF938E
:101250008091B900887F803609F49CC068F5883297
:1012600009F45BC090F4803109F454C038F4882349
:1012700009F4F6C0883009F44DC0F6C0883109F48D
:101280004CC0803209F45DC0EFC0803409F468C0FE
:1012900048F4803309F455C0883309F0E5C08093E1
:1012A0004502D8C0803509F44FC0883509F45DC0C7
:1012B000883409F0D9C0D6C0883909F4C7C0A8F469
:1012C000883709F467C038F4883609F463C080377A
:1012D00009F460C0C9C0883809F4B8C0803909F47D
:1012E0005FC0803809F0C0C05BC0803B09F486C095
:1012F00038F4803A09F466C0883A09F47FC0B4C073
:10130000803C09F4A7C0883C09F4A4C0883B09F4D8
:101310008AC0AAC08091220210C09091440280919C
:101320004302981770F5E091440281E08E0F80939C
:101330004402F0E0ED5DFD4F80818093BB0085ECC1
:1013400086C0809345028EC0E091440281E08E0FFA
:10135000809344028091BB00F0E0ED5DFD4F8083FF
:1013600090914402809143026EC0E091440281E07A
:101370008E0F809344028091BB00F0E0ED5DFD4F45
:1013800080838091460281116DC081E080932102AB
:1013900084EA61C083E0809347021092F601CFCFC8
:1013A0008091F601803208F051C0E091F60181E0B1
:1013B0008E0F8093F6018091BB00F0E0EA52FE4F61
:1013C0008083BDCF85EC8093BC0010924702809152
:1013D000F601803230F4E091F601F0E0EA52FE4F7F
:1013E00010826091F60170E0E0913401F0913501D6
:1013F00086ED91E009951092F60136C084E0809365
:1014000047021092D5011092D401E0913601F0917B
:10141000370109958091D401811105C081E0809345
:10142000D4011092B401E091D50181E08E0F809338
:10143000D501F0E0EC54FE4F80818093BB00909189
:10144000D5018091D401981708F479CF85E880936D
:10145000BC000AC085EC8093BC001092470204C017
:10146000109245020E94EF05FF91EF91BF91AF915D
:101470009F918F917F916F915F914F913F912F91AC
:101480000F900FBE0F901F901895FF920F931F9310
:10149000CF93DF93142FF22E032F91E09093480205
:1014A00080936A021092490210926B0289E093E0E5
:1014B0000E947C06CF2DD02FCE01810F911D8C0173
:1014C000C017D10731F0699189E093E00E947C0652
:1014D000F7CF81E00E944F0C91E0811190E0892FBD
:1014E000DF91CF911F910F91FF900895CF93DF93DC
:1014F0001F92CDB7DEB749839E012F5F3F4F41E07A
:101500000E94450A0F90DF91CF9108952F923F924C
:101510004F925F926F927F928F929F92AF92BF9203
:10152000CF92DF92EF92FF920F931F93CF93DF93AF
:10153000CDB7DEB728970FB6F894DEBF0FBECDBF8C
:10154000D82EC62E4F8349018FB7F89440901D02C4
:1015500050901E0260901F02709020028FBF2D2CB1
:10156000220CE12C1886FF24F394A42EB12C3324F2
:101570003A94980140E050E02B833C834D835E8396
:101580003F81E31608F08CC0F0924802D0926A02C4
:101590001092490210926B026C2D89E093E00E9438
:1015A0007C0681E00E944F0CF0924802D0926A02C1
:1015B0001092490210926B02809147028111FCCF78
:1015C000C5018E1991098132910514F080E290E0F5
:1015D000813208F080E2F0924702F09246023092A7
:1015E0004502109244029FEF980F90934302F092AD
:1015F000220290912202922990932202909121023C
:10160000913071F410922102909122029093BB00CC
:101610009091BC0093FDF8CF45EC4093BC0003C013
:1016200055EE5093BC00909147029130E1F39091B8
:101630004402981710F480914402E3E2F2E0A4E936
:10164000B1E090E0981721F021912D939F5FFACFA0
:1016500010923901909338019091380180913901AD
:10166000981709F456C00115110509F43FC02FB7AA
:10167000F89480911D0290911E02A0911F02B091DA
:1016800020022FBF84199509A609B7092B813C8137
:101690004D815E8182179307A407B50738F139C0E1
:1016A00001151105E1F12FB7F89480911D02909179
:1016B0001E02A0911F02B09120022FBF841995092C
:1016C000A609B70920E030E080179107A207B30709
:1016D00030F14F81242F30E05885852F550F990B1D
:1016E00082179307E4F48FEF888719C0D401E88547
:1016F000AE0FB11DE7FDBA95BA83A98389E093E0E7
:101700000E943306A981BA818C93B885BF5FB887E0
:10171000A3CF8F81813208F080E2E80E31CF888537
:1017200028960FB6F894DEBF0FBECDBFDF91CF91E4
:101730001F910F91FF90EF90DF90CF90BF90AF90EF
:101740009F908F907F906F905F904F903F902F90E1
:101750000895CF92DF92EF92FF920F931F93CF9352
:10176000DF931F92CDB7DEB7F82EE62ED42EC22E11
:1017700008EE13E09E012F5F3F4F41E00E94860A72
:10178000898141E050E001C0440FDA94EAF7CC20AF
:1017900011F0482B02C04095482349836E2D8F2DB0
:1017A0000E94760A0F90DF91CF911F910F91FF90C9
:1017B000EF90DF90CF900895BF92CF92DF92EF929B
:1017C000FF920F931F93CF93DF931F92CDB7DEB796
:1017D000F82EE62EC42EB22ED02E08EE13E09E0177
:1017E0002F5F3F4F41E00E94860A882339F12C2D5C
:1017F00030E02B1931092F5F3F4F81E090E002C0AC
:10180000880F991FBA94E2F70197022E01C0880F42
:101810000A94EAF74D2D50E0BA0102C0660F771F17
:101820002A95E2F7482F4095998149238623482B32
:1018300049836E2D8F2D0E94760A01C080E00F90A3
:10184000DF91CF911F910F91FF90EF90DF90CF909C
:10185000BF9008953FB7F89480914E0390914F0345
:10186000A0915003B091510326B5A89B05C02F3F0E
:1018700019F00196A11DB11D3FBFBA2FA92F982FB6
:101880008827820F911DA11DB11DBC01CD0142E031
:10189000660F771F881F991F4A95D1F70895282F43
:1018A00030916B02313208F04AC0809147028111B9
:1018B000FCCF90916A0242E0409347022093460297
:1018C0002FEF209345021092440230934302EAE442
:1018D000F2E0A3E2B2E020E0321721F041914D9313
:1018E0002F5FFACF1092220220912202990F922BA1
:1018F0009093220290912102913061F41092210282
:10190000909122029093BB009091BC0093FDF8CF80
:1019100095EC01C095EE9093BC00909147029230F7
:10192000E1F3909145029F3F79F08091450280322A
:1019300041F080914502803331F084E005C081E0C0
:1019400003C082E001C083E01092490210926B0252
:101950001092480208950F931F93CF93DF93CAE329
:10196000D3E008EE13E02BE333E041E06AE3888143
:101970000E94860A8981DF91CF911F910F9108956E
:1019800021E042E06AE680913A030C94A90B482FCB
:101990006EE680913A030C94760A2F923F924F9212
:1019A0005F926F927F928F929F92AF92BF92CF92EF
:1019B000DF92EF92FF920F931F93CF93DF933C013F
:1019C0005B01342E522E202E4F716DE680913A032A
:1019D0000E94760A852D0E94C70C80E190E00E944B
:1019E000B81A6C01002331F080E190E00E94B81A2F
:1019F0007C0102C0E12CF12CC0E0D0E0CA15DB056F
:101A000008F06CC0CE014096A816B90618F44A2C0E
:101A10004C1A02C080E1482E842D90E020E031E095
:101A2000251931092817390714F4452C419422202F
:101A300071F0D70180E090E0841560F4FE01E80FBA
:101A4000F91FE60DF71DE491ED930196F5CF7301B3
:101A5000EC0EFD1E9701442D6FE680913A030E9423
:101A6000450A842C912CC114D10419F1432D4F71D6
:101A70006DE680913A030E94760A852D0E94C70C7C
:101A800008EE13E09601442D6FE680913A030E9420
:101A9000860AA401B601C7010E94A41C892B49F043
:101AA000C6010E94501B222011F1C7010E94501B49
:101AB0001EC0C80DD91D540CCA15DB0508F09ECFF9
:101AC000511001C03394432D4F716DE680913A035C
:101AD0000E94760A852D0E94C70C90CFC6010E94F5
:101AE000501B222031F0C7010E94501B02C080E031
:101AF00001C081E0DF91CF911F910F91FF90EF9096
:101B0000DF90CF90BF90AF909F908F907F906F901D
:101B10005F904F903F902F9008950F931F936623EF
:101B200051F0462F9C0108EE13E064E780913A03E0
:101B30000E94860A02C0FC0110821F910F91089535
:101B40000F931F93CF93DF93CAE3D3E008EE13E024
:101B50002BE333E042E062E788810E94860A8981B4
:101B60009A81982789279827DF91CF911F910F910C
:101B70000895EF92FF920F931F93CF93DF931F92DD
:101B8000CDB7DEB77A0189019E012F5F3F4F41E05B
:101B90000E94860A882339F029812E7730E0359516
:101BA0002795F70120830F90DF91CF911F910F911F
:101BB000FF90EF900895CF93DF93EA0191E0909327
:101BC000480280936A021092490210926B0289E0E7
:101BD00093E00E947C06698189E093E00E947C0684
:101BE000688189E093E00E947C0681E00E944F0CAE
:101BF00091E0811190E0892FDF91CF91089590E0DD
:101C0000FC01E75AF64F2491FC01EB5BF64F34914F
:101C1000FC01EF5CF64FE491EE2309F43CC0222373
:101C200039F1233091F038F42130A9F0223001F558
:101C300084B58F7D12C0273091F02830A1F0243078
:101C4000B9F4809180008F7D03C0809180008F77F0
:101C5000809380000DC084B58F7784BD09C08091CA
:101C6000B0008F7703C08091B0008F7D8093B0006B
:101C7000F0E0EE0FFF1FE95DF64FA591B4919FB71D
:101C8000F894611104C08C913095382302C0EC9116
:101C90003E2B3C939FBF08958F929F92AF92BF922D
:101CA000CF92DF92EF92FF926B017C010E942A0C8F
:101CB0004B015C01C114D104E104F104F1F00E9474
:101CC0002A0CDC01CB0188199909AA09BB09883EB5
:101CD0009340A105B10570F321E0C21AD108E108D3
:101CE000F10888EE880E83E0981EA11CB11CC11477
:101CF000D104E104F10419F7DDCFFF90EF90DF90FC
:101D0000CF90BF90AF909F908F9008951F920F92A9
:101D10000FB60F9211242F933F938F939F93AF93FE
:101D2000BF9380911D0290911E02A0911F02B0915D
:101D3000200230914D0323E0230F2D3720F401962C
:101D4000A11DB11D05C026E8230F0296A11DB11DDE
:101D500020934D0380931D0290931E02A0931F02B7
:101D6000B093200280914E0390914F03A0915003B5
:101D7000B09151030196A11DB11D80934E03909324
:101D80004F03A0935003B0935103BF91AF919F9124
:101D90008F913F912F910F900FBE0F901F9018952C
:101DA000CF93DF93CDB7DEB7CC5AD1090FB6F894F5
:101DB000DEBF0FBECDBF789484B5826084BD84B58C
:101DC000816084BD85B5826085BD85B5816085BD36
:101DD00080916E00816080936E00109281008091EE
:101DE0008100826080938100809181008160809376
:101DF0008100809180008160809380008091B1009B
:101E000084608093B1008091B00081608093B000C5
:101E100080917A00846080937A0080917A00826059
:101E200080937A0080917A00816080937A0080911B
:101E30007A00806880937A001092C1001092390174
:101E4000109238011092490210926B0210924702D0
:101E500081E0809346021092210261E082E10E94BB
:101E6000FF0D61E083E10E94FF0D8091B9008E7F3C
:101E70008093B9008091B9008D7F8093B90088E488
:101E80008093B80085E48093BC0081E296E0909353
:101E900037018093360182E296E09093350180937A
:101EA00034018CE08093B800E0917C02F0917D02D7
:101EB00082E08083E0917802F09179021082E091D3
:101EC0007A02F0917B0283E3808310928402E09196
:101ED0008002F091810286E08083E0917E02F091A1
:101EE0007F02808180618083E0917E02F0917F0299
:101EF000808188608083E0917E02F0917F02808102
:101F000080688083E0917E02F0917F0280818F7DE6
:101F1000808301E023E042E06BE680913A030E9477
:101F2000DC0B00E022E044E06BE180913A030E9488
:101F3000DC0B22E044E06CE180913A030E94DC0B70
:101F400020E046E06BE680913A030E94A90BE7E4AB
:101F5000F9E02491E3E3F9E084918823C9F090E06B
:101F6000880F991FFC01EA56FF4F45915491FC01DF
:101F7000E95DF64FA591B4919FB7F894FA0180817D
:101F80002095822380838C91E22FE823EC939FBFDE
:101F900021E047E06BE680913A030E94A90B6EE1D5
:101FA00070E080E090E00E944C0E20E046E06BE69E
:101FB00080913A030E94A90B40E76DE680913A03B5
:101FC0000E94760A86E00E94C70C40E06DE6809190
:101FD0003A030E94760A28EE33E04BE353E060E0D8
:101FE00080913A030E94B90D70903B0328EE33E0D4
:101FF0004BE353E061E080913A030E94B90D809079
:102000003B0328EE33E04BE353E062E080913A0378
:102010000E94B90D90903B034FE765E280913A032F
:102020000E94760A20E045E06AE680913A030E9429
:10203000A90B48E665E280913A030E94760A21E006
:1020400041E06AE680913A030E94A90B64E170E0E6
:1020500080E090E00E944C0E01E020E040E069E862
:1020600077E08FE891E00E94CD0C882309F4B5C297
:1020700088E090E00E94B81A7C0100E010E0F801CE
:10208000E153FF4F6490F801E053FF4F5490580123
:10209000F3E0AF0EB11CF801EF52FF4FE491EE23D5
:1020A00009F485C0CE2ED12CE33028F0B601C7014B
:1020B0000E94D91B7C01D70180E090E08C159D0522
:1020C00048F4F501E80FF91FE153FF4FE491ED9358
:1020D0000196F4CF00E0252D462DB601C7010E94E0
:1020E000CD0C85010C0D1D1D882309F46FC0003C2B
:1020F000110508F4C4CFC7010E94501B03E023E080
:1021000042E06BE680913A030E94DC0B42E168E317
:1021100080913A030E94760A44E069E180913A0393
:102120000E94760A01E023E045E06AE180913A03EB
:102130000E94DC0B03E023E042E06AE180913A0375
:102140000E94DC0B22E044E06BE180913A030E94A4
:10215000DC0B43E060E780913A030E94760A40E09E
:1021600061E780913A030E94760A20E040E060E057
:1021700080913A030E94A90B072D26E046E060E01B
:1021800080913A030E94DC0B082D26E046E061E0D6
:1021900080913A030E94DC0B092D26E046E062E0C4
:1021A00080913A030E94DC0BE12CF12C14C00C5FEF
:1021B0001F4FF501E153FF4FE491E13039F442E361
:1021C00068E380913A030E94760A91CFC7010E948A
:1021D000501B12E003C2F701E056FF4FE491A1E863
:1021E000B0E0AC0FBD1FAE0DB11DEC9381E08E0DC4
:1021F0002FEFE21AF20A93E09E1568F7CD57DF4FF2
:102200006881C358D04070E09B012E5F3F4F90E043
:102210002817390704F700E0CE57DF4F2881C2584E
:10222000D040CF57DF4F4881C158D04081E890E07F
:102230008C0F9D1F03960E94CD0C80E0F701E056A5
:10224000FF4FE491A1E8B0E0AC0FBD1FA80FB11D96
:10225000EC938F5FAFEFEA1AFA0A843078F3CD5728
:10226000DF4F6881C358D04070E0AB014E5F5F4FD5
:10227000282F30E0421753070CF700E0CE57DF4F0E
:102280002881C258D040CF57DF4F4881C158D04035
:1022900081E890E08C0F9D1F03960E94CD0C0E9458
:1022A000C00C0E94A00D682FCE0101960E948D0DDA
:1022B00042E06FE180913A030E94760A4CE961E2C4
:1022C00080913A030E94760A40E560E280913A03E9
:1022D0000E94760A40E062E280913A030E94760A08
:1022E0000E94C00C21E046E06AE680913A030E9419
:1022F000A90B21E047E06AE680913A030E94A90B0E
:1023000021E043E06AE680913A030E94A90B80E055
:10231000F701E056FF4FE491A1E8B0E0AC0FBD1F1C
:10232000A80FB11DEC938F5FBFEFEB1AFB0A84304F
:1023300078F3CD57DF4F6881C358D04070E0AB01D0
:102340004E5F5F4F282F30E0421753070CF700E035
:10235000CE57DF4F2881C258D040CF57DF4F48813A
:10236000C158D04081E890E08C0F9D1F03960E94D9
:10237000CD0C80E0F701E056FF4FE491A1E8B0E01A
:10238000AC0FBD1FA80FB11DEC938F5FEFEFEE1ADE
:10239000FE0A843078F3CD57DF4F6881C358D040B0
:1023A00070E0AB014E5F5F4F282F30E042175307BC
:1023B0000CF700E0CE57DF4F2881C258D040CF57EE
:1023C000DF4F4881C158D04081E890E08C0F9D1FBD
:1023D00003960E94CD0C80E0F701E056FF4FE49198
:1023E000A1E8B0E0AC0FBD1FA80FB11DEC938F5F4B
:1023F000FFEFEF1AFF0A843078F3CD57DF4F688183
:10240000C358D04070E0AB014E5F5F4F282F30E0E3
:10241000421753070CF700E0CE57DF4F2881C25810
:10242000D040CF57DF4F4881C158D04081E890E07D
:102430008C0F9D1F03960E94CD0C0E94A00D83302F
:102440009105D8F3682FCE0101960E948D0D80E092
:10245000F701E056FF4FE491A1E8B0E0AC0FBD1FDB
:10246000A80FB11DEC938F5F2FEFE21AF20A8430B0
:1024700078F3CD57DF4F3880C358D040A32CB12C10
:10248000A5014E5F5F4F282F30E04217530704F736
:10249000CE57DF4F5880C258D040CF57DF4F2880EB
:1024A000C158D040422D4F716DE680913A030E9491
:1024B000760A852D0E94C70CC12CD12C812C992421
:1024C000939421E8622E712C6C0E7D1E83E0680EC1
:1024D000711CCA14DB0498F5C6014096A816B9060B
:1024E00018F4432C4C1802C080E1482E842D90E053
:1024F0009401251931092817390714F4452C419402
:1025000093012C0D3D1D08EE13E0442D6FE68091E4
:102510003A030E94860AC40CD11C540CCA14DB0472
:10252000C0F6511001C02394422D4F716DE6809189
:102530003A030E94760A852D0E94C70CCACF0E94DA
:10254000A00D83309105D8F3682FCE0101960E942B
:102550008D0DF701E056FF4F80E09491A1E8B0E0C7
:10256000AC0FBD1FA80FB11D9C938F5F843070F01E
:10257000CD57DF4F6881C358D04070E0AB014E5F4C
:102580005F4F282F30E04217530714F03196E5CF04
:1025900000E0CE57DF4F2881C258D040CF57DF4FE1
:1025A0004881C158D04081E890E08C0F9D1F039670
:1025B0000E94CD0C20E047E06AE680913A030E9439
:1025C000A90B8AE290E090934C0380934B030E9406
:1025D000C00C0E94AB0C10E001C011E010933B0155
:1025E00080913A0321E130E0CD56DF4F39832883D3
:1025F000C359D040AE014D565F4F63E10E94DB0DE1
:1026000080913A032BEB3FEFCF56DF4F398328837E
:10261000C159D040AE014F565F4F65E10E94DB0DBE
:1026200080913A032BE130E0CF57DF4F3983288385
:10263000C158D040AE014F575F4F67E10E94DB0D9C
:1026400080913A032FE036E03A832983AE014F5F51
:102650005F4F6AE00E94DB0D111122C021E047E0CC
:102660006AE680913A030E94A90B8FEA96E0909364
:10267000010180930001809169008360809369006B
:10268000E89A0E94AB0C80938E0181E080939301C5
:1026900080914B0390914C039093900180938F0114
:1026A0006AE070E087E393E00E94DE0769E070E093
:1026B00084E393E00E94DE0768E070E081E393E04A
:1026C0000E94DE07809193018823C1F180919101DE
:1026D0009091920100918F011091900120913A0107
:1026E000211104C08017910708F4FBC210923A012F
:1026F0000E94AB0CF82E80938E010E94A00D909347
:10270000920180939101F4FC03C08115944010F173
:102710000E94C00C0E94A00D9093920180939101A1
:1027200008E119E0F801649161110BC042E050E04A
:1027300060E371E08CE692E00E94E3040E94E5050C
:10274000C1CF8CE692E00E9476050F5F1F4F892B68
:1027500049F7ECCFF1FEF2CFE0909101F0909201B9
:10276000E016F10638F40E94A00D90939201809338
:102770009101F2CF602F8EE491E00E948D0DE01A5E
:10278000F10AF0929201E0929101009152011091B0
:102790005301102701271027809056019090570170
:1027A000982489249824A0905A01B0905B01BA24FF
:1027B000AB24BA2460914E0170914F0176276727B0
:1027C0007627072E000C880B990B0E94F61820E044
:1027D00030E040E858E30E94DA196B017C01609315
:1027E0002103709322038093230390932403B80161
:1027F000110F880B990B0E94F61820E030E040E89A
:1028000058E30E94DA192B013C0160932503709371
:1028100026038093270390932803B401990C880B17
:10282000990B0E94F61820E030E040E858E30E943F
:10283000DA19CB56DF4F688379838A839B83C55926
:10284000D0406093290370932A0380932B039093C5
:102850002C03B501BB0C880B990B0E94F61820E0E5
:1028600030E040E858E30E94DA19C756DF4F68832A
:1028700079838A839B83C959D04060932D037093D9
:102880002E0380932F03909330039B01AC01C3016F
:10289000B2010E94DA194B015C01CB56DF4F28814F
:1028A00039814A815B81C559D040C701B6010E9478
:1028B000DA199B01AC01C501B4010E9468179B01A4
:1028C000AC010E946917CF55DF4F688379838A83F3
:1028D0009B83C15AD0406093150370931603809375
:1028E000170390931803A3019201C701B6010E9438
:1028F000DA194B015C01C756DF4F288139814A81C3
:102900005B81C959D040CB56DF4F688179818A817C
:102910009B81C559D0400E94DA199B01AC01C501C9
:10292000B4010E9469179B01AC010E946917C3564C
:10293000DF4F688379838A839B83CD59D04060932E
:10294000190370931A0380931B0390931C03A70130
:102950009601C701B6010E94DA194B015C01A3017F
:102960009201C301B2010E94DA199B01AC01C501B9
:10297000B4010E9468174B015C01CB56DF4F2881E0
:1029800039814A815B81C559D040CA01B9010E9491
:10299000DA199B01AC01C501B4010E9468174B0113
:1029A0005C01C756DF4F288139814A815B81C95953
:1029B000D040CA01B9010E94DA199B01AC01C501DE
:1029C000B4010E9469174B015C0160931D03709371
:1029D0001E0380931F0390932003A7019601C70154
:1029E000B6010E946917CB55DF4F688379838A83CC
:1029F0009B83C55AD040A3019201C301B2010E943A
:102A00006917C755DF4F688379838A839B83C95AC7
:102A1000D040A7019601CB55DF4F688179818A812B
:102A20009B81C55AD0400E94DA196B017C01A30139
:102A30009201C755DF4F688179818A819B81C95A8C
:102A4000D0400E94DA199B01AC01C701B6010E9477
:102A5000691720E030E040E85FE30E9468176B01EF
:102A60007C01CB56DF4F288139814A815B81C55972
:102A7000D040C755DF4F688179818A819B81C95ACF
:102A8000D0400E94DA192B013C01C756DF4F288144
:102A900039814A815B81C959D040CB55DF4F68816C
:102AA00079818A819B81C55AD0400E94DA199B01A5
:102AB000AC01C301B2010E946817A70196010E94F0
:102AC000E8172B013C01C356DF4F288139814A8129
:102AD0005B81CD59D040CA01B9010E94DA196B015E
:102AE0007C01A5019401C501B4010E94DA199B0182
:102AF000AC01C701B6010E9469170E944D1A9B01E3
:102B0000AC01CF55DF4F688179818A819B81C15AA1
:102B1000D0400E94E8176B017C01609346017093DE
:102B200047018093480190934901A5019401C35640
:102B3000DF4F688179818A819B81CD59D0400E9485
:102B4000E817CB56DF4F688379838A839B83C55907
:102B5000D04020E030E0A901C501B4010E9447182F
:102B600087FF1EC020E030E0A901C701B6010E9426
:102B7000CD19A701960118162CF46BED7FE089E4BE
:102B800090E404C06BED7FE089E490EC0E9468174C
:102B900060934601709347018093480190934901E7
:102BA00020E030E044E353E4C301B2010E94DA19AB
:102BB0002BED3FE049E450E40E944C186B017C018E
:102BC00060934201709343018093440190934501C7
:102BD00020E030E044E353E4609146017091470106
:102BE00080914801909149010E94DA192BED3FE054
:102BF00049E450E40E944C182B013C0160934601CB
:102C000070934701809348019093490120E030E0A0
:102C100044E353E4CB56DF4F688179818A819B81FD
:102C2000C559D0400E94DA192BED3FE049E450E449
:102C30000E944C184B015C0160934A0170934B0158
:102C400080934C0190934D018091400190914101FE
:102C50008D32F1E09F0774F4C0923C01D0923D01A7
:102C6000E0923E01F0923F010196909341018093E2
:102C7000400164CD20913C0130913D0140913E01E5
:102C800050913F01C701B6010E946817609342014D
:102C90007093430180934401909345010E94BE18B4
:102CA000665A7F4F8F4F9F4F87E393E00E945B07E9
:102CB000C301B2010E94BE18665A7F4F8F4F9F4FCB
:102CC00084E393E00E945B07C501B4010E94BE1833
:102CD000665A7F4F8F4F9F4F81E393E00E945B07BF
:102CE0002DCD20913A01222309F4F8CC0E94A00DA9
:102CF0009093920180939101E9CCFC019091F801AD
:102D00009C30A0F481E0890F8093F8019083892F93
:102D100090E0FC01EE0FFF1F8E0F9F1FFC01E7509C
:102D2000FE4F88EB9BE09283818308958FEF808331
:102D30000895ECE6F2E01382128288EE93E0A0E0C0
:102D4000B0E084839583A683B78320E131E03183AB
:102D5000208325EC30E03587248724EC30E037876A
:102D6000268720EC30E0318B208B21EC30E0338B58
:102D7000228B22EC30E0358B248B26EC30E0378B35
:102D8000268B118E128E138E148EE9E0F3E01382DF
:102D9000128284839583A683B78382E291E0918334
:102DA000808388E680933A0387E393E00E947D1650
:102DB00084E393E00E947D1681E393E00E947D16F8
:102DC000E1E2F3E080E090E0A0E8BFE3808391835C
:102DD000A283B3831482158216821782108611860D
:102DE000128613861486158616861786E5E1F3E0AB
:102DF0001082118212821382148215821682178227
:102E000010861186128613860895052E97FB1EF4F0
:102E100000940E941C1757FD07D00E94371707FC2B
:102E200003D04EF40C941C17509540953095219585
:102E30003F4F4F4F5F4F08959095809570956195E6
:102E40007F4F8F4F9F4F08950E945917A59F900D58
:102E5000B49F900DA49F800D911D11240895B7FF7C
:102E60000C9424170E942417821B930B0895A1E24F
:102E70001A2EAA1BBB1BFD010DC0AA1FBB1FEE1FF4
:102E8000FF1FA217B307E407F50720F0A21BB30B3F
:102E9000E40BF50B661F771F881F991F1A9469F7BB
:102EA00060957095809590959B01AC01BD01CF0117
:102EB0000895A29FB001B39FC001A39F700D811D13
:102EC0001124911DB29F700D811D1124911D089533
:102ED0005058BB27AA270E9480170C9493190E9470
:102EE000851938F00E948C1920F039F49F3F19F4AD
:102EF00026F40C945B190EF4E095E7FB0C9455193D
:102F0000E92F0E94A41958F3BA17620773078407C0
:102F1000950720F079F4A6F50C94C6190EF4E09507
:102F20000B2EBA2FA02D0B01B90190010C01CA0183
:102F3000A0011124FF27591B99F0593F50F4503E2E
:102F400068F11A16F040A22F232F342F4427585F20
:102F5000F3CF469537952795A795F0405395C9F738
:102F60007EF41F16BA0B620B730B840BBAF09150F0
:102F7000A1F0FF0FBB1F661F771F881FC2F70EC08F
:102F8000BA0F621F731F841F48F487957795679562
:102F9000B795F7959E3F08F0B0CF9395880F08F04E
:102FA0009927EE0F9795879508950E94851960F0EF
:102FB00080E891E009F49EEF0E948C1928F040E827
:102FC00051E071F45EEF0CC00C945B190C94C619BF
:102FD000E92FE0780E94A41940F3092E052AB1F3E5
:102FE000261737074807590738F00E2E07F8E0254F
:102FF00069F0E025E0640AC0EF6307F8009407FA7F
:10300000DB01B9019D01DC01CA01AD01EF930E9412
:1030100063180E9493190E9418185F91552339F084
:103020002BED3FE049E450FD49EC0C9469170895FD
:10303000DF93DD27B92FBF7740E85FE31616170649
:1030400048075B0718F4D92F0E94D2199F938F93DA
:103050007F936F930E948D1AE8E6F0E00E945E195C
:103060000E9493192F913F914F915F910E94ED190A
:10307000DD2351F09058A2EA2AED3FE049EC5FE3EE
:10308000D0785D270E948017DF910C9493190E94DD
:10309000311908F481E008950E9460180C94931986
:1030A0000E948C1958F00E94851940F029F45F3F66
:1030B00029F00C94551951110C94C7190C945B19F3
:1030C0000E94A41968F39923B1F3552391F3951B3A
:1030D000550BBB27AA2762177307840738F09F5F39
:1030E0005F4F220F331F441FAA1FA9F335D00E2EA6
:1030F0003AF0E0E832D091505040E695001CCAF713
:103100002BD0FE2F29D0660F771F881FBB1F2617D5
:1031100037074807AB07B0E809F0BB0B802DBF01AC
:10312000FF2793585F4F3AF09E3F510578F00C947B
:1031300055190C94C7195F3FE4F3983ED4F3869574
:1031400077956795B795F7959F5FC9F7880F911D9C
:103150009695879597F90895E1E0660F771F881F88
:10316000BB1F621773078407BA0720F0621B730B3B
:10317000840BBA0BEE1F88F7E09508950E94C518DE
:103180006894B1110C94C71908950E94AC1988F085
:103190009F5798F0B92F9927B751B0F0E1F0660F1B
:1031A000771F881F991F1AF0BA95C9F714C0B1305C
:1031B00091F00E94C619B1E008950C94C619672FCA
:1031C000782F8827B85F39F0B93FCCF3869577958B
:1031D0006795B395D9F73EF4909580957095619574
:1031E0007F4F8F4F9F4F0895E89409C097FB3EF49F
:1031F00090958095709561957F4F8F4F9F4F992344
:10320000A9F0F92F96E9BB279395F69587957795C1
:103210006795B795F111F8CFFAF4BB0F11F460FF81
:103220001BC06F5F7F4F8F4F9F4F16C0882311F0D9
:1032300096E911C0772321F09EE8872F762F05C0ED
:10324000662371F096E8862F70E060E02AF09A9588
:10325000660F771F881FDAF7880F9695879597F97D
:103260000895990F0008550FAA0BE0E8FEEF161617
:103270001706E807F907C0F012161306E407F5076A
:1032800098F0621B730B840B950B39F40A2661F0DE
:10329000232B242B252B21F408950A2609F4A14081
:1032A000A6958FEF811D811D089597F99F6780E88E
:1032B00070E060E008959FEF80EC0895DF93CF9376
:1032C0001F930F93FF92EF92DF927B018C01689422
:1032D00006C0DA2EEF010E94ED19FE01E894A591D7
:1032E0002591359145915591A6F3EF010E948017E4
:1032F000FE019701A801DA9469F7DF90EF90FF9043
:103300000F911F91CF91DF91089500240A94161612
:10331000170618060906089500240A9412161306C3
:10332000140605060895092E0394000C11F4882351
:1033300052F0BB0F40F4BF2B11F460FF04C06F5F6D
:103340007F4F8F4F9F4F089557FD9058440F551F43
:1033500059F05F3F71F04795880F97FB991F61F017
:103360009F3F79F087950895121613061406551F8E
:10337000F2CF4695F1DF08C0161617061806991FFA
:10338000F1CF86957105610508940895E894BB27EF
:1033900066277727CB0197F908950E94311908F421
:1033A0008FEF08959B01AC0160E070E080E89FE33F
:1033B0000C944C180E94ED190C9493190E948519D5
:1033C00038F00E948C1920F0952311F00C945519B7
:1033D0000C945B1911240C94C7190E94A41970F362
:1033E000959FC1F3950F50E0551F629FF001729FAA
:1033F000BB27F00DB11D639FAA27F00DB11DAA1FB9
:10340000649F6627B00DA11D661F829F2227B00D05
:10341000A11D621F739FB00DA11D621F839FA00D90
:10342000611D221F749F3327A00D611D231F849FE0
:10343000600D211D822F762F6A2F11249F57504037
:103440009AF0F1F088234AF0EE0FFF1FBB1F661FB2
:10345000771F881F91505040A9F79E3F510580F07B
:103460000C9455190C94C7195F3FE4F3983ED4F3BC
:10347000869577956795B795F795E7959F5FC1F71F
:10348000FE2B880F911D9695879597F9089519F44D
:1034900016F40C945B190C94911A0E94AC19B8F3B1
:1034A0009923C9F3B6F39F57550B87FF0E949F1AC4
:1034B0000024A0E640EA900180585695979528F49C
:1034C000805C660F771F881F20F026173707480794
:1034D00030F4621B730B840B202931294A2BA695EB
:1034E00017940794202531254A2758F7660F771F30
:1034F000881F20F026173707480730F4620B730B3C
:10350000840B200D311D411DA09581F7B901842F39
:103510009158880F9695879508959B01AC010C945E
:10352000DA199F3F31F0915020F487957795679590
:10353000B795880F911D9695879597F908959150A5
:103540005040660F771F881FD2F70895991B79E0C6
:1035500004C0991F961708F0961B881F7A95C9F723
:1035600080950895EE0FFF1F0590F491E02D0994CA
:103570000F931F93CF93DF938230910510F482E075
:1035800090E0E0915403F091550320E030E0A0E09A
:10359000B0E0309719F140815181028113814817C1
:1035A0005907C8F08417950769F4109731F01296FF
:1035B0000C93129713961C9327C0009354031093F7
:1035C000550322C02115310519F04217530718F48D
:1035D0009A01BD01EF01DF01F801DBCF21153105B3
:1035E000F9F0281B390B2430310580F48A819B8146
:1035F0006115710521F0FB019383828304C09093D0
:10360000550380935403FE01329644C0FE01E20F3D
:10361000F31F8193919322503109398328833AC053
:103620002091520330915303232B41F42091060142
:1036300030910701309353032093520320910401EA
:10364000309105012115310541F42DB73EB7409168
:10365000080150910901241B350BE0915203F091B0
:103660005303E217F307A0F42E1B3F0B281739076B
:1036700078F0AC014E5F5F4F2417350748F04E0FCE
:103680005F1F50935303409352038193919302C061
:10369000E0E0F0E0CF01DF91CF911F910F9108950D
:1036A000CF93DF93009709F481C0FC013297138216
:1036B0001282A0915403B0915503109781F4208198
:1036C0003181820F931F20915203309153032817A9
:1036D000390751F5F0935303E093520367C0ED01AE
:1036E00020E030E0CE17DF0740F44A815B819E0185
:1036F00041155105F1F0EA01F5CFD383C283408132
:103700005181840F951FC817D90759F48881998171
:10371000840F951F0296918380838A819B81938376
:1037200082832115310529F4F0935503E093540366
:103730003DC0E901FB83EA8349915991C40FD51F2C
:10374000EC17FD0761F480819181840F951F02962B
:10375000E90199838883828193819B838A83E0E056
:10376000F0E012968D919C911397009719F0FD014E
:10377000DC01F7CF8D919C9111979D012E5F3F4FFA
:10378000820F931F2091520330915303281739075A
:1037900069F4309729F4109255031092540302C033
:1037A00013821282B0935303A0935203DF91CF91FF
:1037B0000895A0E0B0E0EFEDFBE10C94BE1CEC013D
:1037C000009721F4CB010E94B81AB4C0FC01E60FA7
:1037D000F71F9C0122503109E217F30708F4A8C033
:1037E000D9010D911C91119706171707B0F00530FC
:1037F000110508F49BC0C80104978617970708F4C1
:1038000095C002501109061B170B019311936D937C
:103810007C93CF010E94501B89C05B01A01AB10AA2
:103820004C01800E911EA0915403B0915503612C60
:10383000712CE12CF12C109709F446C08D919C91CC
:103840001197A815B905B1F56C0142E0C40ED11C61
:10385000CA14DB0478F14C018A189B08640142E029
:10386000C40ED11C1296BC9012971396AC91B5E081
:10387000CB16D10440F0B282A38391828082D90119
:103880006D937C9309C00E5F1F4F800F911FF9014C
:1038900091838083EB2DFA2FE114F10431F0D701ED
:1038A0001396FC93EE93129741C0F0935503E09367
:1038B00054033CC06816790608F43C017D01129659
:1038C0000D90BC91A02DB7CF8091520390915303DE
:1038D00088169906E1F466167706C8F4809104010B
:1038E00090910501009741F48DB79EB74091080172
:1038F00050910901841B950BE817F907C8F4F09360
:103900005303E0935203F901718360830FC0CB012D
:103910000E94B81A7C01009759F0A801BE010E94CC
:10392000B11CCE010E94501BC70104C0CE0102C0D1
:1039300080E090E0CDB7DEB7EEE00C94DA1C81E0D9
:1039400090E0F8940C94F11CFB01DC0104C08D9113
:103950000190801921F441505040C8F7881B990B01
:103960000895FB01DC0102C001900D9241505040CE
:10397000D8F708952F923F924F925F926F927F9265
:103980008F929F92AF92BF92CF92DF92EF92FF926F
:103990000F931F93CF93DF93CDB7DEB7CA1BDB0B1B
:1039A0000FB6F894DEBF0FBECDBF09942A883988C0
:1039B00048885F846E847D848C849B84AA84B984C7
:1039C000C884DF80EE80FD800C811B81AA81B981D3
:1039D000CE0FD11D0FB6F894DEBF0FBECDBFED01E7
:0639E0000895F894FFCFEA
:1039E600E204E204000056038000E8030000000041
:1039F6007605E3040D05C3053E051C0530050000EC
:103A060000007C064F06AC0623064706330624064E
:043A16000D0A000095
:00000001FF
